:100000000C942A000C9447000C9447000C94470071
:100010000C9447000C9447000C94590A0C94470028
:100020000C9447000C9447000C9447000C94470034
:100030000C9447000C9447000C9447000C94470024
:100040000C9447000C9447000C9447000C94470014
:100050000C94470011241FBECFE5D8E0DEBFCDBF12
:1000600011E0A0E6B0E0E6EAF4E202C005900D92ED
:10007000A437B107D9F711E0A4E7B1E001C01D92A0
:10008000A937B107E1F70E9467100C9451120C9444
:100090000000EF92FF920F931F937B018C0120E0F1
:1000A00030E040E05FE40E94F50388238CF0C80153
:1000B000B70120E030E040E05FE40E94C1010E940F
:1000C00055049B01AC01205030404040504806C0D0
:1000D000C801B7010E9455049B01AC01B901CA01D6
:1000E0001F910F91FF90EF900895A0E0B0E0EBE733
:1000F000F0E00C94D511DC012B01FA019C919230B7
:1001000008F439C1EB018881823008F433C194309E
:1001100069F4843009F02FC111969C91119789815F
:10012000981709F428C1ACE6B0E025C1843009F481
:1001300021C18230A9F4923009F01DC19A01AD01AC
:1001400088E0EA010990AE01E90109929E0181501F
:10015000C1F7E201898111969C918923818308C1AD
:10016000923009F407C112962D903C901397EB0141
:100170008A819B811496AD90BD90CD90DC901797AD
:10018000EC80FD800E811F819101281B390BB90184
:1001900037FF04C066277727621B730B6032710537
:1001A0000CF061C0121613066CF537014801062EDB
:1001B00004C096948794779467940A94D2F721E0C8
:1001C00030E040E050E004C0220F331F441F551FB1
:1001D0006A95D2F721503040404050402E213F21B7
:1001E00040235123211531054105510521F021E01E
:1001F00030E040E050E079018A01E628F72808293C
:1002000019293CC0232BD1F1260E371E350146019A
:10021000062E04C096948794779467940A94D2F734
:1002200021E030E040E050E004C0220F331F441FC3
:10023000551F6A95D2F721503040404050402A2146
:100240003B214C215D21211531054105510521F04E
:1002500021E030E040E050E059016A01A628B728CB
:10026000C828D9280BC0821593052CF01C01AA249C
:10027000BB24650103C0EE24FF24870111969C91E5
:10028000D20111968C91981709F445C0992339F041
:10029000A80197012A193B094C095D0906C0A6016E
:1002A00095012E193F09400B510B57FD08C01182D3
:1002B0003382228224833583468357831DC081E0A5
:1002C00081833382228288279927DC01821B930B4A
:1002D000A40BB50B84839583A683B7830DC0220F2F
:1002E000331F441F551F24833583468357838281E0
:1002F000938101979383828324813581468157813D
:10030000DA01C9010197A109B1098F5F9F4FAF4F72
:10031000BF4328F30BC0918333822282EA0CFB1C7B
:100320000C1D1D1DE482F5820683178383E0808304
:10033000248135814681578157FF1AC0C901AA27F8
:1003400097FDA095BA2F81709070A070B0705695EF
:10035000479537952795822B932BA42BB52B848318
:100360009583A683B7838281938101969383828349
:10037000DF0101C0D201CD01CDB7DEB7E2E10C94BF
:10038000F111A0E2B0E0E7ECF1E00C94E111698337
:100390007A838B839C832D833E834F835887E9E048
:1003A000EE2EF12CEC0EFD1ECE010196B7010E943F
:1003B00046068E010F5E1F4FCE010596B8010E94C2
:1003C00046068A8991E089278A8BC701B801AE0168
:1003D000475E5F4F0E9475000E947105A096E6E09F
:1003E0000C94FD11A0E2B0E0E8EFF1E00C94E11113
:1003F00069837A838B839C832D833E834F835887C5
:10040000F9E0EF2EF12CEC0EFD1ECE010196B701A6
:100410000E9446068E010F5E1F4FCE010596B80161
:100420000E944606C701B801AE01475E5F4F0E94B9
:1004300075000E947105A096E6E00C94FD11A0E203
:10044000B0E0E5E2F2E00C94D51169837A838B8306
:100450009C832D833E834F835887CE010196BE0136
:10046000675F7F4F0E944606CE010596BE016F5E14
:100470007F4F0E9446069985923088F089898230A4
:10048000C8F0943019F4823051F404C0843029F457
:10049000923081F48CE690E0C6C0923049F420E0BE
:1004A0009A858A89981321E02A87CE010996BBC0D4
:1004B000823049F420E09A858A89981321E02A8BBA
:1004C000CE014196B0C02D843E844F8458886D88FB
:1004D0007E888F88988CEE24FF248701AA24BB2471
:1004E000650140E050E060E070E0E0E0F0E0C10174
:1004F00081709070892BE9F0E60CF71C081D191D1E
:100500009A01AB012A0D3B1D4C1D5D1D80E090E062
:10051000A0E0B0E0E614F7040805190520F481E036
:1005200090E0A0E0B0E0BA01A901480F591F6A1F8E
:100530007B1FAA0CBB1CCC1CDD1C97FE08C081E0F5
:1005400090E0A0E0B0E0A82AB92ACA2ADB2A3196B6
:10055000E032F10549F0660C771C881C991C569412
:10056000479437942794C3CFFA85EA892B893C892D
:100570008B859C85280F391F2E5F3F4F17C0CA01FE
:1005800081709070892B61F016950795F794E79428
:1005900080E090E0A0E0B0E8E82AF92A0A2B1B2BC3
:1005A00076956795579547952F5F3F4F77FDE7CF36
:1005B0000CC0440F551F661F771F17FD4160EE0CDE
:1005C000FF1C001F111F21503040403090E05907A0
:1005D00090E0690790E4790760F32B8F3C8FDB0193
:1005E000CA018F779070A070B07080349105A1051A
:1005F000B10561F447FD0AC0E114F10401051105DC
:1006000029F0405C5F4F6F4F7F4F40781A8EFE1786
:1006100011F081E08A8F4D8F5E8F6F8F78A383E01A
:10062000898FCE0149960E947105A096E2E10C9453
:10063000F111A8E1B0E0EFE1F3E00C94DD11698382
:100640007A838B839C832D833E834F835887B9E0C5
:10065000EB2EF12CEC0EFD1ECE010196B7010E948F
:1006600046068E010F5E1F4FCE010596B8010E940F
:1006700046062985223008F47EC03989323010F4CC
:10068000B8017CC08A859A8989278A87243011F02D
:10069000223031F4231709F06EC06CE670E06EC0B2
:1006A000343039F41D861E861F86188A1C861B86E8
:1006B00004C0323021F484E08987B7015FC02B8504
:1006C0003C858B899C89281B390B3C872B87ED84C3
:1006D000FE840F851889AD88BE88CF88D88CEA142F
:1006E000FB040C051D0540F4EE0CFF1C001F111F40
:1006F000215030403C872B8720E030E040E050E044
:1007000080E090E0A0E0B0E460E070E0EA14FB0478
:100710000C051D0540F0282B392B4A2B5B2BEA18C2
:10072000FB080C091D09B695A79597958795EE0CC2
:10073000FF1C001F111F6F5F7F4F6F31710531F775
:10074000DA01C9018F779070A070B0708034910584
:10075000A105B10561F427FD0AC0E114F10401050A
:10076000110529F0205C3F4F4F4F5F4F20782D87B8
:100770003E874F87588BBE01675F7F4FCB010E943A
:1007800071056896EAE00C94F911A8E1B0E0EBEC91
:10079000F3E00C94E11169837A838B839C832D832E
:1007A0003E834F83588789E0E82EF12CEC0EFD1E26
:1007B000CE010196B7010E9446068E010F5E1F4FC3
:1007C000CE010596B8010E9446068985823040F028
:1007D0008989823028F0C701B8010E94BE0601C095
:1007E0008FEF6896E6E00C94FD11A8E1B0E0EBEF26
:1007F000F3E00C94E11169837A838B839C832D83CE
:100800003E834F83588789E0E82EF12CEC0EFD1EC5
:10081000CE010196B7010E9446068E010F5E1F4F62
:10082000CE010596B8010E9446068985823040F0C7
:100830008989823028F0C701B8010E94BE0601C034
:100840008FEF6896E6E00C94FD11A8E1B0E0EBE2D2
:10085000F4E00C94E11169837A838B839C832D836C
:100860003E834F83588789E0E82EF12CEC0EFD1E65
:10087000CE010196B7010E9446068E010F5E1F4F02
:10088000CE010596B8010E9446068985823040F067
:100890008989823028F0C701B8010E94BE0601C0D4
:1008A00081E06896E6E00C94FD11ACE0B0E0EBE589
:1008B000F4E00C94E51169837A838B839C83CE01E9
:1008C0000196BE016B5F7F4F0E9446068D8182308C
:1008D00061F1823050F1843021F48E81882351F10E
:1008E0002EC02F81388537FD20C06E812F31310514
:1008F0001CF06623F9F023C08EE190E0821B930B7D
:1009000029853A854B855C8504C056954795379572
:1009100027958A95D2F76623B1F05095409530958A
:1009200021953F4F4F4F5F4F0EC020E030E040E039
:1009300050E009C02FEF3FEF4FEF5FE704C020E02A
:1009400030E040E050E8B901CA012C96E2E00C9496
:100950000112A8E0B0E0EFEAF4E00C94DD117B01B5
:100960008C01611571058105910519F482E0898377
:1009700060C083E089838EE1C82ED12CDC82CB82DB
:10098000ED82FE820F831887C801B7010E942205FD
:10099000FC013197F7FF3BC0222733272E1B3F0B6B
:1009A00057016801022E04C0D694C794B794A79447
:1009B0000A94D2F740E050E060E070E081E090E01F
:1009C000A0E0B0E004C0880F991FAA1FBB1F2A95A2
:1009D000D2F70197A109B1098E219F21A023B1234C
:1009E0000097A105B10521F041E050E060E070E022
:1009F0004A295B296C297D294D835E836F83788723
:100A00008EE190E08E1B9F0B9C838B8312C03097EE
:100A100081F00E2E04C0EE0CFF1C001F111F0A9463
:100A2000D2F7ED82FE820F831887CE1ADF0ADC82AE
:100A3000CB821A82CE0101960E9471052896EAE0C7
:100A40000C94F911EF92FF920F931F937B018C018D
:100A500080E0E81680E0F80681E0080780E01807EB
:100A600088F48FEFE816F1040105110531F028F044
:100A700088E090E0A0E0B0E017C080E090E0A0E067
:100A8000B0E012C080E0E81680E0F80680E00807D9
:100A900081E0180728F088E190E0A0E0B0E004C011
:100AA00080E190E0A0E0B0E020E230E040E050E003
:100AB000281B390B4A0B5B0B04C016950795F7945E
:100AC000E7948A95D2F7F701EC58FF4F8081281BF5
:100AD000310941095109C9011F910F91FF90EF9010
:100AE0000895DF92EF92FF920F931F93FC01E48031
:100AF000F58006811781D1808081823048F480E0C2
:100B000090E0A0E1B0E0E82AF92A0A2B1B2BA5C04F
:100B1000843009F49FC0823021F4EE24FF24870141
:100B200005C0E114F1040105110519F4E0E0F0E05D
:100B300096C0628173819FEF623879070CF05BC0C9
:100B400022E83FEF261B370B2A3131052CF020E03D
:100B500030E040E050E02AC0B801A701022E04C0F6
:100B600076956795579547950A94D2F781E090E07E
:100B7000A0E0B0E004C0880F991FAA1FBB1F2A95F0
:100B8000D2F70197A109B1098E219F21A023B1239A
:100B90000097A105B10521F081E090E0A0E0B0E070
:100BA0009A01AB01282B392B4A2B5B2BDA01C901A7
:100BB0008F779070A070B07080349105A105B10559
:100BC00039F427FF09C0205C3F4F4F4F5F4F04C0EF
:100BD000215C3F4F4F4F5F4FE0E0F0E02030A0E05E
:100BE0003A07A0E04A07A0E45A0710F0E1E0F0E07D
:100BF00079018A0127C06038710564F5FB01E1586D
:100C0000FF4FD801C7018F779070A070B07080340B
:100C10009105A105B10539F4E7FE0DC080E490E02F
:100C2000A0E0B0E004C08FE390E0A0E0B0E0E80E08
:100C3000F91E0A1F1B1F17FF05C016950795F7948D
:100C4000E794319687E016950795F794E7948A958F
:100C5000D1F705C0EE24FF248701EFEFF0E06E2FFF
:100C6000679566276795902F9F77D794DD24D79453
:100C70008E2F8695492F462B582F5D29B701CA0123
:100C80001F910F91FF90EF90DF900895FC01DB0121
:100C9000408151812281622F6F7770E0221F2227CD
:100CA000221F9381892F880F822B282F30E0991FD4
:100CB0009927991F11969C93119721153105A9F534
:100CC000411551056105710511F482E037C082E8D4
:100CD0009FEF13969C938E9312979A01AB0167E056
:100CE000220F331F441F551F6A95D1F783E08C9361
:100CF0000DC0220F331F441F551F12968D919C91DA
:100D00001397019713969C938E931297203080E04F
:100D1000380780E0480780E4580758F314962D936D
:100D20003D934D935C93179708952F3F310579F4C8
:100D3000411551056105710519F484E08C930895FE
:100D400064FF03C081E08C9312C01C9210C02F5727
:100D5000304013963C932E93129783E08C9387E058
:100D6000440F551F661F771F8A95D1F7706414963C
:100D70004D935D936D937C93179708951F93DC01BA
:100D8000FB019C91923008F447C08081823008F4C6
:100D900043C0943051F411961C91843099F58181AF
:100DA000682F70E0611B71093FC0843021F09230E0
:100DB00031F48230B9F18181882389F12DC01196F7
:100DC0001C9111978230F1F081811817D9F4129695
:100DD0002D913C911397828193818217930794F010
:100DE00028173907BCF014968D919D910D90BC91F8
:100DF000A02D2481358146815781281739074A075C
:100E00005B0718F4112341F00AC082179307A40767
:100E1000B50740F4112319F061E070E005C06FEFF1
:100E20007FEF02C060E070E0CB011F910895DF9377
:100E3000CF9300D000D00F92CDB7DEB789836A83FD
:100E40004B838981843008F0D5C08A81883008F0CE
:100E5000D1C08981282F30E03D832C838C819D81F6
:100E60008130910509F443C02C813D812230310548
:100E70002CF48C819D81009771F0BCC02C813D8148
:100E80002230310509F45FC08C819D81833091054A
:100E900009F485C0AFC08B818130A1F4AAE3B0E032
:100EA000EAE3F0E08081482F8A81282F30E081E05A
:100EB00090E0022E02C0880F991F0A94E2F7842B5B
:100EC0008C9398C0AAE3B0E0EAE3F0E08081482F79
:100ED0008A81282F30E081E090E0022E02C0880F46
:100EE000991F0A94E2F7809584238C9383C08B81A9
:100EF0008130A1F4A7E3B0E0E7E3F0E08081482F80
:100F00008A81282F30E081E090E0022E02C0880F15
:100F1000991F0A94E2F7842B8C936CC0A7E3B0E08E
:100F2000E7E3F0E08081482F8A81282F30E081E0DC
:100F300090E0022E02C0880F991F0A94E2F7809574
:100F400084238C9357C08B818130A1F4A4E3B0E05B
:100F5000E4E3F0E08081482F8A81282F30E081E0AF
:100F600090E0022E02C0880F991F0A94E2F7842BAA
:100F70008C9340C0A4E3B0E0E4E3F0E08081482F2C
:100F80008A81282F30E081E090E0022E02C0880F95
:100F9000991F0A94E2F7809584238C932BC08B8150
:100FA0008130A1F4A1E3B0E0E1E3F0E08081482FDB
:100FB0008A81282F30E081E090E0022E02C0880F65
:100FC000991F0A94E2F7842B8C9314C0A1E3B0E03C
:100FD000E1E3F0E08081482F8A81282F30E081E032
:100FE00090E0022E02C0880F991F0A94E2F78095C4
:100FF00084238C930F900F900F900F900F90CF91B0
:10100000DF910895DF93CF9300D000D00F92CDB73A
:10101000DEB789836A834B838981843008F0D5C029
:101020008A81883008F0D1C08981282F30E03D8343
:101030002C838C819D818130910509F443C02C81E2
:101040003D81223031052CF48C819D81009771F017
:10105000BCC02C813D812230310509F45FC08C81F8
:101060009D818330910509F485C0AFC08B818130AB
:10107000A1F4ABE3B0E0EBE3F0E08081482F8A819C
:10108000282F30E081E090E0022E02C0880F991FE7
:101090000A94E2F7842B8C9398C0ABE3B0E0EBE3C7
:1010A000F0E08081482F8A81282F30E081E090E0B5
:1010B000022E02C0880F991F0A94E2F780958423BC
:1010C0008C9383C08B818130A1F4A8E3B0E0E8E386
:1010D000F0E08081482F8A81282F30E081E090E085
:1010E000022E02C0880F991F0A94E2F7842B8C937A
:1010F0006CC0A8E3B0E0E8E3F0E08081482F8A818B
:10110000282F30E081E090E0022E02C0880F991F66
:101110000A94E2F7809584238C9357C08B818130A9
:10112000A1F4A5E3B0E0E5E3F0E08081482F8A81F7
:10113000282F30E081E090E0022E02C0880F991F36
:101140000A94E2F7842B8C9340C0A5E3B0E0E5E37A
:10115000F0E08081482F8A81282F30E081E090E004
:10116000022E02C0880F991F0A94E2F7809584230B
:101170008C932BC08B818130A1F4A2E3B0E0E2E339
:10118000F0E08081482F8A81282F30E081E090E0D4
:10119000022E02C0880F991F0A94E2F7842B8C93C9
:1011A00014C0A2E3B0E0E2E3F0E08081482F8A813E
:1011B000282F30E081E090E0022E02C0880F991FB6
:1011C0000A94E2F7809584238C930F900F900F90F0
:1011D0000F900F90CF91DF910895DF93CF9300D0C0
:1011E00000D00F92CDB7DEB789836A8389818430BE
:1011F00018F48A81883010F01D8282C08981282FDE
:1012000030E03C832B834B815C814130510579F187
:101210008B819C818230910534F42B813C81211596
:10122000310569F06CC04B815C8142305105B9F1E8
:101230008B819C818330910509F449C060C0E9E34A
:10124000F0E08081282F30E08A81882F90E0A9018A
:1012500002C0559547958A95E2F7CA018170907052
:10126000882319F051E05D834BC01D8249C0E6E33D
:10127000F0E08081282F30E08A81882F90E0A9015A
:1012800002C0559547958A95E2F7CA018170907022
:10129000882319F051E05D8333C01D8231C0E3E340
:1012A000F0E08081282F30E08A81882F90E0A9012A
:1012B00002C0559547958A95E2F7CA0181709070F2
:1012C000882319F051E05D831BC01D8219C0E0E343
:1012D000F0E08081282F30E08A81882F90E0A901FA
:1012E00002C0559547958A95E2F7CA0181709070C2
:1012F000882319F051E05D8303C01D8201C01D8267
:101300008D810F900F900F900F900F90CF91DF91E4
:101310000895DF93CF9300D000D0CDB7DEB7898397
:101320006A838981843090F58981282F30E03C835D
:101330002B838B819C8181309105D1F02B813C8165
:10134000223031052CF48B819C81009761F01EC006
:101350002B813C812230310581F08B819C8183304F
:10136000910581F013C0EAE3F0E08A8180830EC02A
:10137000E7E3F0E08A81808309C0E4E3F0E08A815A
:10138000808304C0E1E3F0E08A8180830F900F90B6
:101390000F900F90CF91DF910895DF93CF9300D0FE
:1013A00000D0CDB7DEB789836A838981843090F518
:1013B0008981282F30E03C832B838B819C81813075
:1013C0009105D1F02B813C81223031052CF48B81A9
:1013D0009C81009761F01EC02B813C812230310539
:1013E00081F08B819C818330910581F013C0EBE308
:1013F000F0E08A8180830EC0E8E3F0E08A81808398
:1014000009C0E5E3F0E08A81808304C0E2E3F0E014
:101410008A8180830F900F900F900F90CF91DF9172
:101420000895DF93CF9300D000D0CDB7DEB7898386
:101430008981843010F01C8234C08981282F30E0EB
:101440003B832A838A819B8181309105D1F02A8157
:101450003B81223031052CF48A819B81009761F019
:101460001FC02A813B812230310581F08A819B8116
:101470008330910581F014C0E9E3F0E090819C8312
:1014800010C0E6E3F0E020812C830BC0E3E3F0E042
:1014900030813C8306C0E0E3F0E080818C8301C0B2
:1014A0001C828C810F900F900F900F90CF91DF9145
:1014B00008951F920F920FB60F9211242F933F930E
:1014C0004F935F936F937F938F939F93AF93BF934C
:1014D000EF93FF93DF93CF93CDB7DEB78091740185
:1014E00090917501009729F0E0917401F0917501D8
:1014F0000995CF91DF91FF91EF91BF91AF919F91AE
:101500008F917F916F915F914F913F912F910F90AC
:101510000FBE0F901F901895DF93CF9300D0CDB7DB
:10152000DEB79A838983A1E3B0E0E1E3F0E0808154
:101530008F7B8C93EFE4F0E08CE08083AEE4B0E04E
:10154000EEE4F0E08081982F987FE981FA81808134
:10155000892B8C93AEE4B0E0EEE4F0E08081282F9C
:101560002F7BE981FA818181882F90E00024969574
:1015700087950794969587950794982F802D822BB1
:101580008C93ECE4F0E011821082E6E4F0E011824A
:101590001082A9E5B0E0E9E5F0E0808180628C93FB
:1015A0000F900F90CF91DF910895DF93CF9300D0EC
:1015B000CDB7DEB79A83898389819A81909375012B
:1015C000809374010F900F90CF91DF910895DF9376
:1015D000CF930F92CDB7DEB78983AEE4B0E0EEE4EF
:1015E000F0E08081282F2F7B8981882F90E00024D4
:1015F000969587950794969587950794982F802DB3
:10160000822B8C930F90CF91DF910895DF93CF932E
:10161000CDB7DEB7E6E4F0E080819181CF91DF9134
:101620000895DF93CF93CDB7DEB7ECE4F0E01182FD
:101630001082CF91DF910895DF93CF93CDB7DEB7BE
:10164000EFE4F0E01082EEE4F0E01082ECE4F0E091
:1016500011821082E6E4F0E011821082A9E5B0E088
:10166000E9E5F0E080818F7D8C93109275011092F6
:101670007401CF91DF910895DF93CF93CDB7DEB79B
:101680002E970FB6F894DEBF0FBECDBF81E060E0AD
:1016900041E00E94170781E061E041E00E941707E6
:1016A00080E090E0A0EAB1E48B879C87AD87BE879D
:1016B0006B857C858D859E8520E030E04AEF54E483
:1016C0000E941F02DC01CB018F839887A987BA870C
:1016D0006F81788589859A8520E030E040E85FE376
:1016E0000E94250488232CF481E090E09E838D8362
:1016F0003FC06F81788589859A8520E03FEF4FE76D
:1017000057E40E94C50318164CF56B857C858D85C2
:101710009E8520E030E040E251E40E941F02DC019F
:10172000CB01BC01CD010E944900DC01CB019E83AD
:101730008D830FC088EC90E09C838B838B819C8190
:101740000197F1F79C838B838D819E8101979E8306
:101750008D838D819E81009769F714C06F81788594
:1017600089859A850E944900DC01CB019E838D8387
:101770008D819E819A83898389819A810197F1F76E
:101780009A83898380E06FEF0E94890988E30E9431
:10179000D80B8CE00E94D80B81E00E94D80B2E96CB
:1017A0000FB6F894DEBF0FBECDBFCF91DF91089585
:1017B000DF93CF93CDB7DEB7E9970FB6F894DEBFCE
:1017C0000FBECDBF89AF81E060E040E00E9402081B
:1017D00080E090E0A0E8BFE38DAB9EABAFABB8AFCD
:1017E0006DA97EA98FA998AD20E030E04AEF54E4BE
:1017F0000E941F02DC01CB0189AB9AABABABBCAB47
:1018000069A97AA98BA99CA920E030E040E85FE3B0
:101810000E94250488232CF481E090E098AB8FA7E8
:101820003FC069A97AA98BA99CA920E03FEF4FE7A7
:1018300057E40E94C50318164CF56DA97EA98FA91F
:1018400098AD20E030E040E251E40E941F02DC014C
:10185000CB01BC01CD010E944900DC01CB0198AB5A
:101860008FA70FC088EC90E09EA78DA78DA59EA5A1
:101870000197F1F79EA78DA78FA598A9019798AB1F
:101880008FA78FA598A9009769F714C069A97AA9AD
:101890008BA99CA90E944900DC01CB0198AB8FA7C2
:1018A0008FA598A99CA78BA78BA59CA50197F1F75D
:1018B0009CA78BA781E061E041E00E94020880E0E4
:1018C00090E0A0E8BFE38FA398A7A9A7BAA76FA14C
:1018D00078A589A59AA520E030E04AEF54E40E945B
:1018E0001F02DC01CB018BA39CA3ADA3BEA36BA104
:1018F0007CA18DA19EA120E030E040E85FE30E9442
:10190000250488232CF481E090E09AA389A33FC0AA
:101910006BA17CA18DA19EA120E03FEF4FE757E492
:101920000E94C50318164CF56FA178A589A59AA544
:1019300020E030E040E251E40E941F02DC01CB01D4
:10194000BC01CD010E944900DC01CB019AA389A30F
:101950000FC088EC90E098A38F8F8F8D98A101978E
:10196000F1F798A38F8F89A19AA101979AA389A3D0
:1019700089A19AA1009769F714C06BA17CA18DA1E0
:101980009EA10E944900DC01CB019AA389A389A1F1
:101990009AA19E8F8D8F8D8D9E8D0197F1F79E8FD1
:1019A0008D8F80E069AD0E94CD0980E090E0A0E8D5
:1019B000BFE3898F9A8FAB8FBC8F698D7A8D8B8DAA
:1019C0009C8D20E030E04AEF54E40E941F02DC01CD
:1019D000CB018D8B9E8BAF8BB88F6D897E898F8964
:1019E000988D20E030E040E85FE30E9425048823E2
:1019F0002CF481E090E09C8B8B8B3FC06D897E89BD
:101A00008F89988D20E03FEF4FE757E40E94C50390
:101A100018164CF5698D7A8D8B8D9C8D20E030E009
:101A200040E251E40E941F02DC01CB01BC01CD0168
:101A30000E944900DC01CB019C8B8B8B0FC088EC92
:101A400090E09A8B898B89899A890197F1F79A8B13
:101A5000898B8B899C8901979C8B8B8B8B899C892B
:101A6000009769F714C06D897E898F89988D0E94CF
:101A70004900DC01CB019C8B8B8B8B899C89988BDB
:101A80008F878F8598890197F1F7988B8F8781E0F1
:101A900061E040E00E94020880E090E0A0E8BFE33F
:101AA0008B879C87AD87BE876B857C858D859E8562
:101AB00020E030E04AEF54E40E941F02DC01CB0139
:101AC0008F839887A987BA876F81788589859A855A
:101AD00020E030E040E85FE30E94250488232CF4F6
:101AE00081E090E09E838D833FC06F8178858985FA
:101AF0009A8520E03FEF4FE757E40E94C503181690
:101B00004CF56B857C858D859E8520E030E040E23C
:101B100051E40E941F02DC01CB01BC01CD010E94F7
:101B20004900DC01CB019E838D830FC088EC90E0DF
:101B30009C838B838B819C810197F1F79C838B83A2
:101B40008D819E8101979E838D838D819E810097DB
:101B500069F714C06F81788589859A850E9449004C
:101B6000DC01CB019E838D838D819E819A83898345
:101B700089819A810197F1F79A838983E9960FB653
:101B8000F894DEBF0FBECDBFCF91DF910895DF93F4
:101B9000CF93CDB7DEB7E9970FB6F894DEBF0FBE8F
:101BA000CDBF89AF81E060E041E00E94020880E0A3
:101BB00090E0A0E8BFE38DAB9EABAFABB8AF6DA933
:101BC0007EA98FA998AD20E030E04AEF54E40E944E
:101BD0001F02DC01CB0189AB9AABABABBCAB69A9F3
:101BE0007AA98BA99CA920E030E040E85FE30E943D
:101BF000250488232CF481E090E098AB8FA73FC0A8
:101C000069A97AA98BA99CA920E03FEF4FE757E487
:101C10000E94C50318164CF56DA97EA98FA998AD31
:101C200020E030E040E251E40E941F02DC01CB01E1
:101C3000BC01CD010E944900DC01CB0198AB8FA70C
:101C40000FC088EC90E09EA78DA78DA59EA501975B
:101C5000F1F79EA78DA78FA598A9019798AB8FA79D
:101C60008FA598A9009769F714C069A97AA98BA9CB
:101C70009CA90E944900DC01CB0198AB8FA78FA5DE
:101C800098A99CA78BA78BA59CA50197F1F79CA76A
:101C90008BA781E061E041E00E94020880E090E0D3
:101CA000A0E8BFE38FA398A7A9A7BAA76FA178A5BB
:101CB00089A59AA520E030E04AEF54E40E941F0273
:101CC000DC01CB018BA39CA3ADA3BEA36BA17CA124
:101CD0008DA19EA120E030E040E85FE30E94250452
:101CE00088232CF481E090E09AA389A33FC06BA1E4
:101CF0007CA18DA19EA120E03FEF4FE757E40E9419
:101D0000C50318164CF56FA178A589A59AA520E002
:101D100030E040E251E40E941F02DC01CB01BC0133
:101D2000CD010E944900DC01CB019AA389A30FC019
:101D300088EC90E098A38F8F8F8D98A10197F1F791
:101D400098A38F8F89A19AA101979AA389A389A1AA
:101D50009AA1009769F714C06BA17CA18DA19EA1E7
:101D60000E944900DC01CB019AA389A389A19AA111
:101D70009E8F8D8F8D8D9E8D0197F1F79E8F8D8F0C
:101D800080E069AD0E94CD0980E090E0A0E8BFE36B
:101D9000898F9A8FAB8FBC8F698D7A8D8B8D9C8D3F
:101DA00020E030E04AEF54E40E941F02DC01CB0146
:101DB0008D8B9E8BAF8BB88F6D897E898F89988D27
:101DC00020E030E040E85FE30E94250488232CF403
:101DD00081E090E09C8B8B8B3FC06D897E898F89E1
:101DE000988D20E03FEF4FE757E40E94C503181697
:101DF0004CF5698D7A8D8B8D9C8D20E030E040E232
:101E000051E40E941F02DC01CB01BC01CD010E9404
:101E10004900DC01CB019C8B8B8B0FC088EC90E0E0
:101E20009A8B898B89899A890197F1F79A8B898B8B
:101E30008B899C8901979C8B8B8B8B899C890097C4
:101E400069F714C06D897E898F89988D0E94490039
:101E5000DC01CB019C8B8B8B8B899C89988B8F872A
:101E60008F8598890197F1F7988B8F8781E061E0E2
:101E700040E00E94020880E090E0A0E8BFE38B878A
:101E80009C87AD87BE876B857C858D859E8520E090
:101E900030E04AEF54E40E941F02DC01CB018F8343
:101EA0009887A987BA876F81788589859A8520E088
:101EB00030E040E85FE30E94250488232CF481E0B1
:101EC00090E09E838D833FC06F81788589859A8558
:101ED00020E03FEF4FE757E40E94C50318164CF58A
:101EE0006B857C858D859E8520E030E040E251E465
:101EF0000E941F02DC01CB01BC01CD010E94490000
:101F0000DC01CB019E838D830FC088EC90E09C8325
:101F10008B838B819C810197F1F79C838B838D81CF
:101F20009E8101979E838D838D819E81009769F7A5
:101F300014C06F81788589859A850E944900DC01EB
:101F4000CB019E838D838D819E819A838983898134
:101F50009A810197F1F79A838983E9960FB6F894ED
:101F6000DEBF0FBECDBFCF91DF910895DF93CF933A
:101F700000D00F92CDB7DEB79B838A8319820EC043
:101F80008981282F30E08A819B81FC01E20FF31FB9
:101F900080810E94C70D89818F5F89838981282F65
:101FA00030E08A819B81FC01E20FF31F808188234E
:101FB00039F70F900F900F90CF91DF910895DF9335
:101FC000CF9300D000D00F92CDB7DEB78A836B835A
:101FD0008A81282F30E03D832C838C819D81813044
:101FE0009105C1F02C813D81223031052CF48C818A
:101FF0009D81009761F019C02C813D81223031050F
:1020000069F08C819D818330910561F00EC08B81D8
:1020100089830BC08B81805C898307C08B81805F43
:10202000898303C08B81805B8983898180680E945A
:10203000D80B0F900F900F900F900F90CF91DF91D2
:102040000895DF93CF9300D000D0CDB7DEB789835A
:102050006A835C834B8389816A810E94DF0F8B8155
:102060009C810E94B60F0F900F900F900F90CF9110
:10207000DF910895DF93CF93CDB7DEB762970FB6A8
:10208000F894DEBF0FBECDBF9A8B898B89899A8960
:102090009E012F5F3F4FB9014AE050E00E940C12B1
:1020A000CE0101960E94B60F62960FB6F894DEBF7D
:1020B0000FBECDBFCF91DF910895DF93CF93CDB702
:1020C000DEB781E00E94D80BCF91DF910895DF93B6
:1020D000CF9300D0CDB7DEB7AFE5B0E0EFE5F0E0ED
:1020E000808180688C930E943C0B0E94901080E657
:1020F00090E00E94B60F0E9486119A83898389819D
:102100009A810E943A1089819A818436910518F447
:1021100080E20E94C70D80E06BE00E94DF0FEBCFF2
:10212000DF93CF9300D0CDB7DEB782EB91E10E9471
:10213000D50A82E0898381E08A83CE0101960E94DC
:102140008C0A81E065E041E00E9417070F900F9034
:10215000CF91DF910895DF93CF93CDB7DEB7689726
:102160000FB6F894DEBF0FBECDBF81E065E041E061
:102170000E94020880E090E0A0E2B1E48D8B9E8B8B
:10218000AF8BB88F6D897E898F89988D2BEA3AEA5B
:102190004AE250E40E941F02DC01CB01898B9A8B3A
:1021A000AB8BBC8B69897A898B899C8920E030E074
:1021B00040E85FE30E94250488231CF481E0888BBB
:1021C00091C069897A898B899C8920E030E04FE74A
:1021D00053E40E94C50318160CF07BC06D897E89FC
:1021E0008F89988D20E030E04AE754E40E9419037B
:1021F000DC01CB018C879D87AE87BF876C857D8591
:102200008E859F8520E030E04AEF54E40E941F0253
:10221000DC01CB0188879987AA87BB876885798588
:102220008A859B8520E030E040E85FE30E9425043A
:1022300088232CF481E090E09F838E833FC06885E3
:1022400079858A859B8520E03FEF4FE757E40E9420
:10225000C50318164CF56C857D858E859F8520E01D
:1022600030E040E251E40E941F02DC01CB01BC01DE
:10227000CD010E944900DC01CB019F838E830FC0FA
:1022800088EC90E09D838C838C819D810197F1F790
:102290009D838C838E819F8101979F838E838E8106
:1022A0009F81009769F724C0688579858A859B8519
:1022B0000E944900DC01CB019F838E838E819F8128
:1022C0009B838A838A819B810197F1F79B838A8311
:1022D0000FC069897A898B899C890E944900DC0139
:1022E000CB01888B8889898389818A95F1F78983D5
:1022F00081E065E040E00E94020868960FB6F8941D
:10230000DEBF0FBECDBFCF91DF910895DF93CF9396
:10231000CDB7DEB70E94AB10809176018230E1F735
:10232000109276018091770190917801CC01A0E024
:10233000B0E0BC01CD010E94A904DC01CB01BC01CD
:10234000CD0122E73AE84EE85CE30E941F02DC017F
:10235000CB01BC01CD010E944900DC01CB01CF9132
:10236000DF910895DF93CF93CDB7DEB780917601EB
:102370008F5F8093760180917601813031F40E94E5
:10238000110B80E00E94E70A0DC080917601823037
:1023900049F40E94060B909378018093770181E0C5
:1023A0000E94E70ACF91DF9108952F923F924F92BA
:1023B0005F926F927F928F929F92AF92BF92CF92D5
:1023C000DF92EF92FF920F931F93CF93DF93CDB7DE
:1023D000DEB7CA1BDB0B0FB6F894DEBF0FBECDBF56
:1023E00009942A88398848885F846E847D848C8427
:1023F0009B84AA84B984C884DF80EE80FD800C8130
:102400001B81AA81B981CE0FD11D0FB6F894DEBF12
:102410000FBECDBFED010895FB019F01E89442304E
:10242000C4F04532B4F44A3029F497FB1EF4909579
:1024300081959F4F642F77270E943D12805D8A33DC
:102440000CF0895D8193CB010097A1F716F45DE252
:1024500051931082C9010C942D12DC01FC01672FED
:1024600071917723E1F7329704C07C916D9370836B
:102470006291AE17BF07C8F30895AA1BBB1B51E1B9
:1024800007C0AA1FBB1FA617B70710F0A61BB70BE4
:10249000881F991F5A95A9F780959095BC01CD0189
:0624A0000895F894FFCF3F
:1024A60044697374616E6365203D2000000000007E
:1024B60000000000000102020303030304040404F5
:1024C60004040404050505050505050505050505BA
:1024D600050505050606060606060606060606069A
:1024E6000606060606060606060606060606060686
:1024F600060606060707070707070707070707076A
:102506000707070707070707070707070707070755
:102516000707070707070707070707070707070745
:102526000707070707070707070707070707070735
:102536000707070708080808080808080808080819
:102546000808080808080808080808080808080805
:1025560008080808080808080808080808080808F5
:1025660008080808080808080808080808080808E5
:1025760008080808080808080808080808080808D5
:1025860008080808080808080808080808080808C5
:1025960008080808080808080808080808080808B5
:1025A60008080808080808080808080808080808A5
:0425B6000808080801
:00000001FF
